:020000040800F2
:100000000050002019220008491F00084B1F00085B
:100010004D1F00084F1F0008511F0008000000007E
:100020000000000000000000000000003163000834
:10003000531F000800000000D16300081564000889
:100040006122000861220008612200086122000884
:100050006122000861220008612200086122000874
:100060006122000861220008612200086122000864
:100070006122000861220008612200086122000854
:100080006122000861220008612200086122000844
:100090006122000861220008612200086122000834
:1000A0006122000861220008612200086122000824
:1000B0006122000861220008551F00086122000823
:1000C0006122000861220008612200086122000804
:1000D00061220008612200086122000861220008F4
:1000E000651F00086122000861220008000000006E
:1000F0000000000000000000000000000000000000
:0C01000000000000000000005FF808F1A3
:1001100010B5054C237833B9044B13B10448AFF341
:1001200000800123237010BD78080020000000002B
:100130006C87000808B5034B1BB103490348AFF3B4
:10014000008008BD000000007C0800206C870008CB
:1001500081F0004102E000BF83F0004330B54FEA78
:1001600041044FEA430594EA050F08BF90EA020FE5
:100170001FBF54EA000C55EA020C7FEA645C7FEA78
:10018000655C00F0E2804FEA5454D4EB5555B8BF9B
:100190006D420CDD2C4480EA020281EA030382EA0C
:1001A000000083EA010180EA020281EA0303362D9E
:1001B00088BF30BD11F0004F4FEA01314FF4801C71
:1001C0004CEA113102D0404261EB410113F0004F83
:1001D0004FEA03334CEA133302D0524263EB43033A
:1001E00094EA050F00F0A780A4F10104D5F1200ED8
:1001F0000DDB02FA0EFC22FA05F2801841F1000133
:1002000003FA0EF2801843FA05F359410EE0A5F106
:1002100020050EF1200E012A03FA0EFC28BF4CF037
:10022000020C43FA05F3C01851EBE37101F00045ED
:1002300007D54FF0000EDCF1000C7EEB00006EEBFA
:100240000101B1F5801F1BD3B1F5001F0CD3490884
:100250005FEA30004FEA3C0C04F101044FEA4452DB
:1002600012F5800F80F09A80BCF1004F08BF5FEA62
:10027000500C50F1000041EB045141EA050130BD42
:100280005FEA4C0C404141EB0101013C28BFB1F554
:10029000801FE9D291F0000F04BF01460020B1FA9F
:1002A00081F308BF2033A3F10B03B3F120020CDA72
:1002B0000C3208DD02F1140CC2F10C0201FA0CF050
:1002C00021FA02F10CE002F11402D8BFC2F1200CB5
:1002D00001FA02F120FA0CFCDCBF41EA0C0190406B
:1002E000E41AA2BF01EB0451294330BD6FEA0404B4
:1002F0001F3C1CDA0C340EDC04F11404C4F120029F
:1003000020FA04F001FA02F340EA030021FA04F3B0
:1003100045EA030130BDC4F10C04C4F1200220FA07
:1003200002F001FA04F340EA0300294630BD21FA45
:1003300004F0294630BD94F0000F83F4801306BF0B
:1003400081F480110134013D4EE77FEA645C18BFFF
:100350007FEA655C29D094EA050F08BF90EA020F96
:1003600005D054EA000C04BF1946104630BD91EA8E
:10037000030F1EBF0021002030BD5FEA545C05D191
:100380004000494128BF41F0004130BD14F58004D0
:100390003CBF01F5801130BD01F0004545F0FE4144
:1003A00041F470014FF0000030BD7FEA645C1ABF79
:1003B000194610467FEA655C1CBF0B46024650EAB0
:1003C000013406BF52EA033591EA030F41F40021DC
:1003D00030BD00BF90F0000F04BF0021704730B562
:1003E0004FF4806404F132044FF000054FF0000137
:1003F00050E700BF90F0000F04BF0021704730B5F8
:100400004FF4806404F1320410F0004548BF4042CC
:100410004FF000013EE700BF42004FEAE2014FEA21
:1004200031014FEA02701FBF12F07F4393F07F4FFC
:1004300081F06051704732F07F4208BF704793F0FF
:100440007F4F04BF41F40021704730B54FF4607412
:1004500001F0004521F000411CE700BF50EA010215
:1004600008BF704730B54FF000050AE050EA0102BE
:1004700008BF704730B511F0004502D5404261EB2E
:1004800041014FF4806404F132045FEA915C3FF46F
:10049000D8AE4FF003025FEADC0C18BF03325FEA0C
:1004A000DC0C18BF033202EBDC02C2F1200300FABD
:1004B00003FC20FA02F001FA03FE40EA0E0021FAE2
:1004C00002F11444BDE600BF4FF0FF3C06E000BF60
:1004D0004FF0010C02E000BF4FF0010C4DF804CDCD
:1004E0004FEA410C7FEA6C5C4FEA430C18BF7FEA8D
:1004F0006C5C1BD001B050EA410C0CBF52EA430CBB
:1005000091EA030F02BF90EA020F0020704710F13A
:10051000000F91EA030F58BF994208BF90422CBFC9
:10052000D8176FEAE37040F0010070474FEA410CC2
:100530007FEA6C5C02D150EA013C07D14FEA430CE0
:100540007FEA6C5CD6D152EA033CD3D05DF8040B51
:10055000704700BF8446104662468C461946634683
:1005600000E000BF01B5FFF7B7FF002848BF10F15A
:10057000000F01BD4DF808EDFFF7F4FF0CBF01209F
:1005800000205DF808FB00BF4DF808EDFFF7EAFF1B
:1005900034BF012000205DF808FB00BF4DF808EDD6
:1005A000FFF7E0FF94BF012000205DF808FB00BFCB
:1005B0004DF808EDFFF7CEFF94BF012000205DF855
:1005C00008FB00BF4DF808EDFFF7C4FF34BF012062
:1005D00000205DF808FB00BF4FEA410212F500124F
:1005E00015D211D56FF47873B3EB625212D94FEA7A
:1005F000C12343F0004343EA505311F0004F23FA64
:1006000002F018BF404270474FF00000704750EAB8
:10061000013005D111F0004008BF6FF00040704775
:100620004FF00000704700BF4A0011D212F50012CF
:1006300011D20DD56FF47873B3EB62520ED44FEA3A
:10064000C12343F0004343EA505323FA02F07047BA
:100650004FF00000704750EA013002D14FF0FF30F8
:1006600070474FF0000070474FEA4102B2F1E0439B
:1006700024BFB3F5001CDCF1FE5C0DD901F0004C89
:100680004FEAC0024CEA5070B2F1004F40EB8300D9
:1006900008BF20F00100704711F0804F21D113F105
:1006A0003872BCBF01F00040704741F480114FEA3E
:1006B0005252C2F11802C2F1200C10FA0CF320FAC7
:1006C00002F018BF40F001004FEAC1234FEAD323E4
:1006D00003FA0CFC40EA0C0023FA02F34FEA43034E
:1006E000CCE77FEA625307D150EA01331EBF4FF0D7
:1006F000FE4040F44000704701F0004040F0FE40F2
:1007000040F40000704700BF80F0004002E000BFEE
:1007100081F0004142001FBF5FEA410392EA030FEC
:100720007FEA226C7FEA236C6AD04FEA1262D2EB36
:100730001363C1BFD218414048404140B8BF5B423B
:10074000192B88BF704710F0004F40F4000020F0D4
:100750007F4018BF404211F0004F41F4000121F0EA
:100760007F4118BF494292EA030F3FD0A2F1010234
:1007700041FA03FC10EB0C00C3F1200301FA03F172
:1007800000F0004302D5494260EB4000B0F5000F95
:1007900013D3B0F1807F06D340084FEA310102F154
:1007A0000102FE2A51D2B1F1004F40EBC25008BF06
:1007B00020F0010040EA03007047490040EB0000D0
:1007C000013A28BFB0F5000FEDD2B0FA80FCACF1D1
:1007D000080CB2EB0C0200FA0CF0AABF00EBC250FE
:1007E00052421843BCBFD0401843704792F0000FEC
:1007F00081F4000106BF80F400000132013BB5E73F
:100800004FEA41037FEA226C18BF7FEA236C21D0B4
:1008100092EA030F04D092F0000F08BF0846704719
:1008200090EA010F1CBF0020704712F07F4F04D1E7
:10083000400028BF40F00040704712F100723CBFFA
:1008400000F50000704700F0004343F0FE4040F424
:10085000000070477FEA226216BF08467FEA2363E2
:100860000146420206BF5FEA412390EA010F40F4CD
:10087000800070474FF0000304E000BF10F0004319
:1008800048BF40425FEA000C08BF704743F0964300
:1008900001464FF000001CE050EA010208BF70471B
:1008A0004FF000030AE000BF50EA010208BF7047A2
:1008B00011F0004302D5404261EB41015FEA010CB7
:1008C00002BF84460146002043F0B64308BFA3F1AF
:1008D0008053A3F50003BCFA8CF2083AA3EBC25391
:1008E00010DB01FA02FC634400FA02FCC2F12002B0
:1008F000BCF1004F20FA02F243EB020008BF20F0E7
:100900000100704702F1200201FA02FCC2F120024C
:1009100050EA4C0021FA02F243EB020008BF20EA41
:10092000DC7070474FF0FF0C1CEAD0521EBF1CEA6F
:10093000D15392EA0C0F93EA0C0F6FD01A4480EA5D
:10094000010C400218BF5FEA41211ED04FF0006346
:1009500043EA501043EA5111A0FB01310CF0004072
:10096000B1F5000F3EBF490041EAD3715B0040EA98
:10097000010062F17F02FD2A1DD8B3F1004F40EB68
:10098000C25008BF20F00100704790F0000F0CF03B
:10099000004C08BF49024CEA502040EA51207F3AFF
:1009A000C2BFD2F1FF0340EAC250704740F40000DA
:1009B0004FF00003013A5DDC12F1190FDCBF00F0CB
:1009C00000407047C2F10002410021FA02F1C2F179
:1009D000200200FA02FC5FEA310040F1000053EA15
:1009E0004C0308BF20EADC70704792F0000F00F063
:1009F000004C02BF400010F4000F013AF9D040EA69
:100A00000C0093F0000F01F0004C02BF490011F4FC
:100A1000000F013BF9D041EA0C018FE70CEAD153FA
:100A200092EA0C0F18BF93EA0C0F0AD030F0004C7A
:100A300018BF31F0004CD8D180EA010000F000402E
:100A4000704790F0000F17BF90F0004F084691F0EC
:100A5000000F91F0004F14D092EA0C0F01D1420226
:100A60000FD193EA0C0F03D14B0218BF084608D1EF
:100A700080EA010000F0004040F0FE4040F4000039
:100A8000704740F0FE4040F4400070474FF0FF0CCC
:100A90001CEAD0521EBF1CEAD15392EA0C0F93EA13
:100AA0000C0F69D0A2EB030280EA010C49024FEA65
:100AB000402037D04FF0805343EA111143EA10131E
:100AC0000CF000408B4238BF5B0042F17D024FF4D6
:100AD000000C8B4224BF5B1A40EA0C00B3EB510FB1
:100AE00024BFA3EB510340EA5C00B3EB910F24BF9A
:100AF000A3EB910340EA9C00B3EBD10F24BFA3EB1F
:100B0000D10340EADC001B0118BF5FEA1C1CE0D1E6
:100B1000FD2A3FF650AF8B4240EBC25008BF20F099
:100B2000010070470CF0004C4CEA50207F32C2BFED
:100B3000D2F1FF0340EAC250704740F400004FF08A
:100B40000003013A37E792F0000F00F0004C02BFBB
:100B5000400010F4000F013AF9D040EA0C0093F085
:100B6000000F01F0004C02BF490011F4000F013BDF
:100B7000F9D041EA0C0195E70CEAD15392EA0C0F47
:100B800008D142027FF47DAF93EA0C0F7FF470AF7F
:100B9000084676E793EA0C0F04D14B023FF44CAFC2
:100BA00008466EE730F0004C18BF31F0004CCAD157
:100BB00030F000427FF45CAF31F000437FF43CAF93
:100BC0005FE700BF4FF0FF3C06E000BF4FF0010CB5
:100BD00002E000BF4FF0010C4DF804CD4FEA400297
:100BE0004FEA41037FEA226C18BF7FEA236C11D0E1
:100BF00001B052EA530C18BF90EA010F58BFB2EB94
:100C0000030088BFC81738BF6FEAE17018BF40F013
:100C1000010070477FEA226C02D15FEA402C05D1C7
:100C20007FEA236CE4D15FEA412CE1D05DF8040B4C
:100C3000704700BF844608466146FFE70FB5FFF7DF
:100C4000C9FF002848BF10F1000F0FBD4DF808ED97
:100C5000FFF7F4FF0CBF012000205DF808FB00BF88
:100C60004DF808EDFFF7EAFF34BF012000205DF8E2
:100C700008FB00BF4DF808EDFFF7E0FF94BF01202F
:100C800000205DF808FB00BF4DF808EDFFF7D2FF2C
:100C900094BF012000205DF808FB00BF4DF808ED6F
:100CA000FFF7C8FF34BF012000205DF808FB00BF3C
:100CB0004FEA4002B2F1FE4F0FD34FF09E03B3EB69
:100CC00012620DD94FEA002343F0004310F0004FA9
:100CD00023FA02F018BF404270474FF000007047FF
:100CE00012F1610F01D1420205D110F0004008BF9E
:100CF0006FF0004070474FF00000704770B54FF044
:100D0000FF0C4CF4E06C1CEA11541DBF1CEA135597
:100D100094EA0C0F95EA0C0F00F0DEF82C4481EAFF
:100D2000030621EA4C5123EA4C5350EA013518BF1F
:100D300052EA033541F4801143F4801338D0A0FB0C
:100D400002CE4FF00005E1FB02E506F00042E0FBB9
:100D500003E54FF00006E1FB03569CF0000F18BFBF
:100D60004EF0010EA4F1FF04B6F5007F64F5407467
:100D700004D25FEA4E0E6D4146EB060642EAC621FA
:100D800041EA55514FEAC52040EA5E504FEACE2E67
:100D9000B4F1FD0C88BFBCF5E06F1ED8BEF1004F6A
:100DA00008BF5FEA500E50F1000041EB045170BDE6
:100DB00006F0004646EA010140EA020081EA03012A
:100DC000B4EB5C04C2BFD4EB0C0541EA045170BD26
:100DD00041F480114FF0000E013C00F3AB8014F1A0
:100DE000360FDEBF002001F0004170BDC4F10004E9
:100DF000203C35DA0C341BDC04F11404C4F120056A
:100E000000FA05F320FA04F001FA05F240EA0200C4
:100E100001F0004221F0004110EBD37021FA04F6FA
:100E200042EB06015EEA430E08BF20EAD37070BDB4
:100E3000C4F10C04C4F1200500FA04F320FA05F013
:100E400001FA04F240EA020001F0004110EBD37015
:100E500041F100015EEA430E08BF20EAD37070BD85
:100E6000C4F1200500FA05F24EEA020E20FA04F35E
:100E700001FA05F243EA020321FA04F001F000410D
:100E800021FA04F220EA020000EBD3705EEA430E7E
:100E900008BF20EAD37070BD94F0000F0FD101F0AD
:100EA0000046400041EB010111F4801F08BF013CE6
:100EB000F7D041EA060195F0000F18BF704703F024
:100EC0000046520043EB030313F4801F08BF013DAB
:100ED000F7D043EA0603704794EA0C0F0CEA135567
:100EE00018BF95EA0C0F0CD050EA410618BF52EA21
:100EF0004306D1D181EA030101F000414FF0000027
:100F000070BD50EA410606BF1046194652EA430634
:100F100019D094EA0C0F02D150EA013613D195EAA8
:100F20000C0F05D152EA03361CBF104619460AD1F0
:100F300081EA030101F0004141F0FE4141F47001FA
:100F40004FF0000070BD41F0FE4141F4780170BDEA
:100F500070B54FF0FF0C4CF4E06C1CEA11541DBF4F
:100F60001CEA135594EA0C0F95EA0C0F00F0A7F851
:100F7000A4EB050481EA030E52EA03354FEA01317E
:100F800000F088804FEA03334FF0805545EA131391
:100F900043EA12634FEA022245EA111545EA106559
:100FA0004FEA00260EF000419D4208BF964244F1F0
:100FB000FD0404F5407402D25B084FEA3202B61A0F
:100FC00065EB03055B084FEA32024FF480104FF4E3
:100FD000002CB6EB020E75EB030E22BFB61A754657
:100FE00040EA0C005B084FEA3202B6EB020E75EBEA
:100FF000030E22BFB61A754640EA5C005B084FEA52
:101000003202B6EB020E75EB030E22BFB61A75461E
:1010100040EA9C005B084FEA3202B6EB020E75EB29
:10102000030E22BFB61A754640EADC0055EA060EEA
:1010300018D04FEA051545EA16754FEA06164FEA2D
:10104000C30343EA52734FEAC2025FEA1C1CC0D1D9
:1010500011F4801F0BD141EA00014FF000004FF066
:10106000004CB6E711F4801F04BF01430020B4F127
:10107000FD0C88BFBCF5E06F3FF6AFAEB5EB030CDF
:1010800004BFB6EB020C5FEA500C50F1000041EBDC
:10109000045170BD0EF0004E4EEA113114EB5C04A9
:1010A000C2BFD4EB0C0541EA045170BD41F480117C
:1010B0004FF0000E013C90E645EA060E8DE60CEA84
:1010C000135594EA0C0F08BF95EA0C0F3FF43BAFA1
:1010D00094EA0C0F0AD150EA01347FF434AF95EA58
:1010E0000C0F7FF425AF104619462CE795EA0C0F3C
:1010F00006D152EA03353FF4FDAE1046194622E709
:1011000050EA410618BF52EA43067FF4C5AE50EAE2
:1011100041047FF40DAF52EA43057FF4EBAE12E7D2
:101120004FEA410C7FEA6C5C02D150EA013C0AD1E3
:101130004FEA430C7FEA6C5C02D152EA033C02D1D5
:101140004FF0000070474FF0010070470023054A40
:101150001370054A1370054A1370054A1370054A47
:101160001370704797080020960800209808002008
:10117000950800209408002010B50446124B012267
:101180001A700146114801F0CBFCB8B9B4F5805F84
:1011900015D009D8B4F5806F0DD0B4F5006F0DD11E
:1011A0000B4B01221A7009E0B4F5005F06D1094B20
:1011B00001221A7002E0084B01221A7010BD074B81
:1011C00001221A70FAE700BF97080020000C0140C6
:1011D0009508002098080020960800209408002018
:1011E00000B585B000230193029303931E481F4A64
:1011F00002604FF480728260037301220275826183
:101200004FF46022C26143600323036101F074F96B
:10121000F0B90023019301220292039301A912481D
:1012200001F058F8B8B9012301930223029301A9F0
:101230000D4801F04FF888B902230193032302936C
:1012400001A9094801F046F858B905B05DF804FB5A
:1012500000F034FDDDE700F031FDE4E700F02EFDA5
:10126000EAE700F02BFDF0E79C0800200024014095
:1012700000B587B00023029303930493059302689B
:10128000114B9A4202D007B05DF804FB03F56C43A2
:101290009A6942F400729A619A6902F400720092AB
:1012A000009A9A6942F004029A619B6903F0040370
:1012B0000193019B072302930323039302A903488D
:1012C00001F01CFBDFE700BF0024014000080140E3
:1012D00008B50B480B4B0360102343600023836069
:1012E000C36003614361037643768376C3760377F5
:1012F000437701F005FA00B908BD00F0DFFCFBE719
:10130000CC0800200064004010B586B00023029392
:101310000393049305930268164B9A4201D006B0DA
:1013200010BD03F5D633DA6942F00072DA61DA698A
:1013300002F000720092009A9A6942F004029A61E7
:101340009B6903F004030193019B4FF40063029334
:10135000094C02A9204601F0D1FA4FF480530293C0
:10136000022303930323059302A9204601F0C6FA42
:10137000D5E700BF006400400008014008B5012027
:1013800004F042FFFBE70000034B0360034B0B60DC
:1013900040231360704700BF200A00201C09002072
:1013A00030B58BB0374D01950624009400234022C0
:1013B0003549364805F0E4FB286805F07DFE344DDC
:1013C00001950094002340223249334805F0D8FBB0
:1013D000286805F071FE314D0195009400234022EC
:1013E0002F49304805F0CCFB286805F065FE2E4DEE
:1013F00001950094002340222C492D4805F0C0FBA4
:10140000286805F059FE2B4D0195009400234022D9
:1014100029492A4805F0B4FB286805F04DFE284DFF
:1014200001950094002340222649274805F0A8FB97
:10143000286805F041FE254D0195009400234022C7
:101440002349244805F09CFB286805F035FE224B13
:1014500001930094002340222049214805F090FB8D
:101460000DF10C0C1F4C0FCCACE80F0094E80700FA
:101470008CE80700002103A804F091FE1A4B1860C5
:101480000BB030BDFC080020B087000881160008B2
:1014900000090020B887000801170008140900207F
:1014A000C0870008C517000818090020C887000871
:1014B0003D18000804090020D0870008B51800086E
:1014C00008090020D887000845190008F8080020FE
:1014D000E08700089119000810090020E88700083B
:1014E0003515000888870008F408002010B5044668
:1014F0000E4B1B68834212D0002208210C4801F0D9
:1015000016FBFFF723FE00200246014603F00CFC09
:10151000204605F06BFB002005F0CEFD10BD01223A
:101520000821034801F003FBEBE700BF100900208E
:101530000008014030B583B004F00CFF002004F037
:1015400043FA04F029FF05F0DFFB01900122082196
:101550003A4801F0ECFA002409E00924204604F09E
:1015600033FAFFF7F3FD0A2101A805F0DBFC344B49
:101570001B78002BF7D0334B1D7825B1002CECD015
:10158000013CE4B2EAE7304B1B784BB10134E4B2E2
:10159000092C00D82546284604F016FA2C46E0E728
:1015A0002A4B1B78002BDCD0092C0AD8DFE804F08A
:1015B000050D12171C212931393E254B1868FFF7FC
:1015C00095FF204604F000FAD1E7224B1868FFF798
:1015D0008DFFF6E7204B1868FFF788FFF1E71F4BF8
:1015E0001868FFF783FFECE71D4B1868FFF77EFFD5
:1015F000E7E71C4B1C4A1A601C4B1868FFF776FF84
:10160000DFE7184B1A4A1A60184B1868FFF76EFF8D
:10161000D7E7144B174A1A60144B1868FFF766FF98
:10162000CFE7154B1868FFF761FFCAE70D4B134A68
:101630001A600E4B1868FFF759FFC2E70008014017
:1016400097080020960800209808002095080020A0
:10165000FC080020000900201409002018090020BF
:10166000040900200C090020BC10002008090020FB
:10167000E410002044100020F8080020341100205D
:1016800010B582B005F040FB0190002413E0154B2B
:101690001B78F3B114492046FFF73CF80446FFF7E6
:1016A00055FD22464FF07E51002003F03DFB012105
:1016B00001A805F037FC0D4B1B78002BF1D00C4B2B
:1016C0001B78002BE3D008492046FFF721F8044699
:1016D000E5E7084B1B78002BE1D0074B1868FFF7B4
:1016E00005FFE8E798080020DB0FC93F97080020B6
:1016F0009608002094080020100900200000000037
:1017000030B583B005F000FB019000252C4627E0A2
:10171000254B1B7883B12846FEF77EFE20A3D3E934
:101720000023FEF71BFDFEF79FFF05461F49FFF74D
:10173000B5FA20B11D4D02E01D4B1B7853BBFFF7DE
:1017400005FD29462046FEF7E5FF044602464FF018
:101750007E51002003F0E8FA012101A805F0E2FB28
:10176000144B1B78002BECD0134B1B78002BCFD0E5
:101770002846FEF751FE0AA3D3E90023FEF7ECFC4E
:10178000FEF772FF05460D49FFF76AFA0028D6D02A
:101790000A4DD4E70A4B1868FFF7A8FEE0E700BF40
:1017A0007B14AE47E17A843F98080020DB0F494064
:1017B000940800209708002096080020DB0F49C0FD
:1017C0001009002010B582B005F09EFA01900024A7
:1017D00011E0154B1B78EBB14FF07E512046FEF720
:1017E00099FF0446FFF7B2FC204603F02FFC0121CD
:1017F00001A805F097FB0D4B1B78002BF4D00C4B88
:101800001B78002BE5D04FF07E512046FEF780FF7D
:101810000446E7E7074B1B78002BE3D0064B18681C
:10182000FFF764FEE7E700BF980800209708002054
:1018300096080020940800201009002010B582B0FE
:1018400005F062FA0190002410E0144B1B78DBB124
:1018500013492046FEF75EFF0446FFF777FC20465B
:1018600003F0FEFB012101A805F05CFB0D4B1B788A
:10187000002BF4D00C4B1B78002BE6D008492046F7
:10188000FEF746FF0446E8E7084B1B78002BE4D040
:10189000074B1868FFF72AFEE8E700BF980800200A
:1018A0000000A0409708002096080020940800201F
:1018B0001009002010B582B005F026FA019000242E
:1018C0000121204604F042F914E0184B1B78FBB1CB
:1018D00017492046FEF71EFF0446FFF737FC00219C
:1018E000204604F033F9204603F0D8FB012101A87B
:1018F00005F018FB0F4B1B78002BF4D00E4B1B7818
:10190000002BE2D00A492046FEF702FF0446E4E736
:101910000A4B1B78002BE0D0094B1868FFF7E6FD57
:101920000121204604F012F9E4E700BF98080020E6
:10193000DB0FC93F9708002096080020940800207C
:101940001009002000B583B005F0DEF901900AE02F
:10195000FFF7FCFB0A4B1968002003F0EFFB0121A5
:1019600001A805F0DFFA074B1B78002BF2D0064BDD
:101970001B78002BECD0054B1868FFF7B7FDF2E79A
:101980000C0900209708002094080020100900206E
:101990002DE9F04184B005F0B7F90390584B1B686E
:1019A000ADF808301B0C8DF80A30564B564A1A60B9
:1019B0004FF08142DA61554A1A62012301930024F3
:1019C0000094234604220521104604F02BF92546F5
:1019D00073E04F4B1B7853B32DB9002C00F08B8074
:1019E000013CE4B253E004F10F036B4413F8082CFC
:1019F000013A03F8082C9DF80980424F4046FEF753
:101A000039FF38609DF80A603046FEF733FFF86111
:101A10007042FEF733FF386200230193009523469E
:101A2000324641469DF8080004F0FCF82FE0394B9F
:101A30001B784BB325B9032C5FD00134E4B226E008
:101A400004F10F036B4413F8082C013203F8082C3F
:101A50009DF809802B4F4046FEF70CFF38609DF83B
:101A60000A603046FEF706FFF8617042FEF706FF97
:101A700038620023019300952346324641469DF883
:101A8000080004F0CFF802E0234B1B7813BBFFF7EC
:101A90005DFB00230193009523469DF80A209DF8E5
:101AA00009109DF8080004F0BDF89DF8080003F047
:101AB00089FB012103A805F035FA184B1B78002B90
:101AC000F3D0174B1B78002B83D0002CDFD085F090
:101AD0000105DCE7134B1868FFF708FD01230193AC
:101AE000009523469DF80A209DF809109DF80800EE
:101AF00004F098F8E1E70324C9E72C46C7E700BFE4
:101B0000F08700086C1000200000A040000080C09A
:101B100096080020980800209408002097080020CC
:101B200095080020100900202DE9F04188B000241C
:101B30000494059406940794294B9A6942F0200274
:101B40009A619A6902F020020192019A9A6942F020
:101B500004029A619A6902F004020292029A9A6956
:101B600042F008029A619B6903F008030393039B08
:101B7000DFF8708022465821404600F0D8FF1A4D09
:101B800022464FF40041284600F0D1FF5823049329
:101B90000127059706940226079604A9404600F0FF
:101BA000ADFE4FF470530493104B0593069404A9B3
:101BB000284600F0A3FE4FF40043049305970694D3
:101BC000079604A9284600F099FE22460521282000
:101BD00000F04EFE282000F083FE08B0BDE8F08142
:101BE0000010024000080140000C014000002110DC
:101BF00008B50B480B4B03600B4B4360002383601D
:101C0000C3604FF48042026143618361C361036238
:101C100001F0EEF900B908BD00F050F8FBE700BF95
:101C2000A00E002000540040801A060010B586B0B7
:101C3000002302930393049305930268154B9A4281
:101C400001D006B010BD144CA36943F00803A36192
:101C5000A36903F008030093009B4FF440730293C1
:101C6000122303930323059302A90C4800F046FEB8
:101C70000B4A536843F0E06343F002035360E369A7
:101C800043F40013E361E36903F400130193019B40
:101C9000D7E700BF0054004000100240000C014094
:101CA0000000014008B50268034B9A4200D008BD0D
:101CB00000F0EAFAFBE700BF0008004072B6FEE75A
:101CC00000B595B0282200210DEB020005F066FD5D
:101CD00000230593069307930893099301930293B6
:101CE0000393049301220A924FF480330B930E92D4
:101CF0000222119212934FF4E01313930AA801F0F9
:101D0000C1FCC8B90F230593022106910023079354
:101D10004FF480620892099305A801F0F3FE68B9B8
:101D2000022301934FF40043039301A801F0E4FF61
:101D300030B915B05DF804FBFFF7C0FFFFF7BEFF39
:101D4000FFF7BCFF08B500F08DFAFFF7B9FFFFF70A
:101D5000EBFEFFF745FAFFF7BBFAFFF749FF00F08C
:101D600023F800F075F900F0F9F904F0D9F8012131
:101D70000A4803F083FD02F0C7FF0021084803F082
:101D80007DFD03F037FD0021064803F077FD03F0E9
:101D9000EDF8FFF705FB04F0FDF9FEE7F487000816
:101DA000008800080888000808B50F480F4B03603A
:101DB0004FF4827343604FF4004383600023C36099
:101DC000036143614FF4007282610822C2610362C1
:101DD000436283620A23C36202F016F900B908BDA8
:101DE000FFF76CFFFBE700BFF40E0020003001405E
:101DF00000B587B000230293039304930593026810
:101E0000124B9A4202D007B05DF804FB03F5604321
:101E10009A6942F480529A619A6902F4805200925F
:101E2000009A9A6942F004029A619B6903F00403E4
:101E30000193019BA02302930223039303230593A1
:101E400002A9034800F05AFDDDE700BF0030014061
:101E50000008014000B583B0114B9A6942F00102BD
:101E60009A619A6902F001020092009ADA6942F0DE
:101E70008052DA61DB6903F080530193019B0022F9
:101E80000F216FF0010000F0F3FC064A536823F0C5
:101E9000E06343F00073536003B05DF804FB00BFE0
:101EA000001002400000014030B589B00446214BCB
:101EB000DA6942F00402DA61DB6903F0040301939A
:101EC000019B02A903A801F0F9FE069BCBB901F022
:101ED000D5FE03461848A0FB03239B0C013B174883
:101EE000174A026040F2E732C26043600023036198
:101EF0008360836102F0A2FB054630B1284609B039
:101F000030BD01F0BBFE4300E4E70C4802F066FA86
:101F100005460028F2D11E2000F0E2FC0F2C01D96A
:101F20000125EBE7002221461E2000F0A1FC054B15
:101F30001C60E3E70010024083DE1B434C0F0020CF
:101F40000008004008000020FEE7FEE7FEE7FEE78D
:101F5000FEE7704708B5024802F079FA08BD00BFF5
:101F60004C0F002008B54FF4806000F0E7FD4FF4FF
:101F7000006000F0E3FD4FF4805000F0DFFD4FF40F
:101F8000005000F0DBFD08BD10B503460C4A0D49BA
:101F90000D48006840B10C4800680344521A93424F
:101FA00006D8094A136010BD0748084C0460F2E7E0
:101FB00005F0F6F80C2303604FF0FF30F3E700BFA5
:101FC0000050002000040000940F0020A0490020D1
:101FD000704700000268094B9A4200D0704782B0F7
:101FE00003F564439A6942F400629A619B6903F4C1
:101FF00000630193019B02B0704700BF002C0140B9
:1020000000B587B0002302930393049305930268FD
:102010000D4B9A4202D007B05DF804FB03F5644310
:102020009A6942F004029A619B6903F004030193E8
:10203000019B4FF4E063029302230393059302A9EB
:10204000024800F05BFCE6E7002C0140000801407C
:1020500010B596B00024129413941494159410940F
:10206000119409940A940B940C940D940E940F946B
:102070002022214601A805F091FB3648364B03602B
:1020800044604023836040F6FF73C3600461446191
:10209000846102F0D3FA002844D14FF480531293A4
:1020A00012A92C4802F0C8FB00283ED1294802F0B2
:1020B000F1FA00283CD100231093119310A9254870
:1020C00002F0A4FC002836D16023099300220A9272
:1020D0000B920C920D920E920F9209A91D4802F0DC
:1020E00037FB58BB042209A91A4802F031FB40BB58
:1020F000082209A9174802F02BFB28BB00230193F3
:1021000002930393049305934FF4005206920893AD
:1021100001A9104802F0B0FCC8B90E48FFF770FFE3
:1021200016B010BDFFF7CAFDB7E7FFF7C7FDBDE763
:10213000FFF7C4FDBFE7FFF7C1FDC5E7FFF7BEFD31
:10214000D0E7FFF7BBFDD3E7FFF7B8FDD6E7FFF712
:10215000B5FDE2E7980F0020002C014008B50A48C1
:102160000A4B03604FF4E133436000238360C36094
:1021700003610C2242618361C36102F029FD00B951
:1021800008BDFFF79BFDFBE7E00F00200038014092
:1021900010B586B00023029303930493059302685D
:1021A0001A4B9A4201D006B010BD03F558439A6904
:1021B00042F480429A619A6902F480420092009A45
:1021C0009A6942F008029A619B6903F0080301933F
:1021D000019B4023029302230393032305930C4C9A
:1021E00002A9204600F08AFB802302930023039378
:1021F000049302A9204600F081FB064A536843F08D
:10220000E06343F004035360CDE700BF00380140B2
:10221000000C0140000001400C480D490D4A00230C
:1022200002E0D458C4500433C4188C42F9D30A4A8B
:102230000A4C002301E013600432A242FBD3FFF7F3
:10224000C7FE04F0B3FFFFF77DFD704700000020DC
:1022500074080020ECE7000878080020A04900205E
:10226000FEE7000008B5074A136843F01003136047
:10227000032000F0EBFA0F20FFF716FEFFF7EAFD50
:10228000002008BD00200240034A1168034B1B7860
:102290000B441360704700BF24100020040000208E
:1022A000014B1868704700BF2410002038B5044661
:1022B000FFF7F6FF0546B4F1FF3F02D0044B1B7851
:1022C0001C44FFF7EDFF401BA042FAD338BD00BF0E
:1022D0000400002030B482B00022019290F8242043
:1022E000012A00F091800346012280F824204A68E8
:1022F000062A2DD80468606B02EB8202053A4FF083
:102300001F0C0CFA02FC20EA0C000D6805FA02F220
:10231000024362630A68092A3AD91C68E06802EB42
:1023200042021E3A4FF0070C0CFA02FC20EA0C00A5
:102330008D6805FA02F20243E2600A68103A012A47
:1023400036D90020002283F8242002B030BC704728
:102350000C2A0ED80568286B02EB8202233A1F2450
:10236000944020EA04000C6804FA02F202432A6353
:10237000D0E70568E86A02EB8202413A1F249440E4
:1023800020EA04000C6804FA02F20243EA62C1E7A0
:102390001C68206902EB42024FF0070C0CFA02FCA9
:1023A00020EA0C008D6805FA02F202432261C4E7BC
:1023B0001A681648824205D09A6A42F020029A6250
:1023C0000120BFE7906810F4000F1BD1906840F423
:1023D000000090600A68102A01D00020B2E70C4A81
:1023E00012680C49A1FB0212920C02EB820252000D
:1023F000019202E0019A013A0192019A002AF9D170
:1024000000209FE700209DE702209EE70024014076
:102410000000002083DE1B4330B583B0002301930E
:1024200003689A6812F0010F33D104469A6842F0AB
:1024300001029A60184B1B68184AA2FB03239B0CED
:10244000019302E0019B013B0193019B002BF9D119
:10245000FFF726FF054623689B6813F0010F16D18E
:10246000FFF71EFF431B022BF5D923689B6813F06F
:10247000010FF0D1A36A43F01003A362E36A43F0B3
:102480000103E362002384F82430012002E00020ED
:1024900000E0002003B030BD0000002083DE1B43BD
:1024A00038B503689A6812F0010F01D1002038BDD9
:1024B00004469A6822F001029A60FFF7F1FE054691
:1024C00023689B6813F0010F13D0FFF7E9FE431B4D
:1024D000022BF5D923689B6813F0010FF0D0A36A93
:1024E00043F01003A362E36A43F00103E3620120B7
:1024F000DDE70020DBE7000000287BD070B5044654
:10250000836A002B4DD02046FFF7CAFFA36A13F061
:10251000100369D1002867D1A26A22F4885222F000
:10252000020242F00202A2626268E1690A43217B70
:1025300042EA4102A568B5F5807F02D0012D36D070
:102540001D46267D012E35D02668716821F469412B
:10255000294371602568AE68274931401143A9605D
:10256000A168B1F5807F01D0012902D12369013B27
:102570001B052568E96A21F470010B43EB622368AF
:1025800099681E4B0B409A4225D0A36A23F0120390
:1025900043F01003A362E36A43F00103E362012006
:1025A00027E0C36280F82430FEF762FEABE74FF409
:1025B0008075C6E731B9A169013945EA413141F475
:1025C0000065C1E7A16A41F02001A162E16A41F022
:1025D0000101E162B8E70023E362A36A23F0030389
:1025E00043F00103A36204E0A36A43F01003A36273
:1025F000012070BD01207047FDF7E1FFFE0E1FFFB7
:1026000070B582B00023019390F82430012B72D072
:102610000446012380F82430FFF742FF054628B125
:10262000002384F82430284602B070BDA36A23F446
:10263000885323F0020343F00203A3622F4B1E686A
:10264000022001F0E5FBB6FBF0F67600019602E011
:10265000019B013B0193019B002BF9D12046FFF721
:10266000DBFE2268936843F008039360FFF718FECF
:10267000064623689A6812F0080F14D0FFF710FE80
:10268000801B0A28F5D923689B6813F0080FF0D047
:10269000A36A23F0120343F01003A362002384F81B
:1026A00024300125BFE79A6842F004029A60FFF7E0
:1026B000F7FD064623689B6813F0040F14D0FFF75C
:1026C000EFFD801B0A28F5D923689B6813F0040FDF
:1026D000F0D0A36A23F0120343F01003A362002397
:1026E00084F8243001259EE7A36A23F0030343F016
:1026F0000103A36294E7022595E700BF00000020D4
:10270000002800F0A18038B5044690F82030D3B1FD
:102710002268136843F001031360FFF7C1FD05460B
:1027200023685A6812F0010F10D1FFF7B9FD401B62
:102730000A28F5D9636A43F400336362052384F8F9
:102740002030012038BDFEF7DFFDE1E71A6822F0F6
:1027500002021A60FFF7A4FD054623685A6812F0CA
:10276000020F0DD0FFF79CFD401B0A28F5D9636AC4
:1027700043F400336362052384F820300120E1E74D
:10278000227E012A3DD01A6822F080021A60637E00
:10279000012B3BD02268136823F040031360A37E13
:1027A000012B39D02268136823F020031360E37EE5
:1027B000012B37D02268136843F010031360237F86
:1027C000012B35D02268136823F008031360637F60
:1027D000012B33D02268136823F004031360A3682D
:1027E000E268134322691343626913436268013A42
:1027F00021681343CB6100206062012384F82030FC
:10280000A0E71A6842F080021A60C0E722681368E5
:1028100043F040031360C2E72268136843F02003CB
:102820001360C4E72268136823F010031360C6E73F
:102830002268136843F008031360C8E7226813682E
:1028400043F004031360CAE701207047074AD368C6
:1028500023F4E0631B041B0C000200F4E06003435C
:1028600043F0BF6343F40033D360704700ED00E0F2
:1028700000B5194BDB68C3F30223C3F1070CBCF1AD
:10288000040F28BF4FF0040C03F1040EBEF1060F35
:1028900018D9033B4FF0FF3E0EFA0CFC21EA0C0165
:1028A00099400EFA03F322EA0303194300280BDBD5
:1028B0000901C9B200F1604000F5614080F80013E1
:1028C0005DF804FB0023E5E700F00F000901C9B241
:1028D000024B1954F4E700BF00ED00E014ED00E0F6
:1028E000002807DB00F01F02400901239340024A41
:1028F00042F82030704700BF00E100E070B582B0C0
:102900000024A446A6E0804DAA4210D007D97F4DEE
:10291000AA420CD005F58035AA4208D013E0A5F5EF
:102920008015AA4203D005F57025AA4207D18A680E
:10293000002A58D0012A51D04361082403E0A5F5AC
:102940008015AA42F3D0BEF1FF0F4ED80646BEF165
:10295000FF0F4CD84FEA8C0233680F25954023EACD
:10296000050304FA02F2134333604B6813F0805FEF
:102970006ED0674B9A6942F001029A619B6903F03D
:1029800001030193019B4FEA9C02951C614B53F894
:1029900025600CF003039D000F23AB4026EA0306DD
:1029A0005D4B984229D003F58063984200F08E80F9
:1029B00003F58063984200F08B8003F580639842B2
:1029C00019D004231AE0CC68BDE7CC680434BAE718
:1029D000CC680834B7E7CC680C34B4E7036108244A
:1029E000B1E70024AFE70424ADE7061DAFE7ACF183
:1029F00008029200B0E7032300E00023AB4033431A
:102A00000232444D45F822304B6813F4803F61D0C8
:102A1000424A136843EA0E0313604B6813F4003F05
:102A20005ED03E4A536843EA0E0353604B6813F48A
:102A3000801F5BD0394A936843EA0E0393604B686A
:102A400013F4001F58D0354AD36843EA0E03D3600D
:102A50000CF1010C0A6832FA0CF353D0012303FA8B
:102A60000CF302EA030E33EA0202F1D14A68122A99
:102A70003FF649AF122A3FF666AF01A555F822F09E
:102A80002F290008C7290008D1290008E3290008D8
:102A90004729000847290008472900084729000856
:102AA0004729000847290008472900084729000846
:102AB0004729000847290008472900084729000836
:102AC00047290008CB290008D7290008012395E7EA
:102AD000022393E7114A136823EA0E0313609CE76D
:102AE0000E4A536823EA0E0353609FE70B4A93682C
:102AF00023EA0E039360A2E7084AD36823EA0E0391
:102B0000D360A5E702B070BD0000221000003110B4
:102B10000010024000000140000801400004014094
:102B20008368194201D001207047002070470AB124
:102B300001617047090401617047000008B5054B49
:102B40005B69034200D108BD024B5861FEF714FBDC
:102B5000F9E700BF0004014003685A6912F4806F6E
:102B600001D1002070476FF480625A610023036333
:102B7000202280F83D2080F83E30026C42F00402B2
:102B8000026480F83C30012070472DE9F04107468F
:102B90000D4690461E4624E0FFF782FB069BC01AB6
:102BA000B04200D8EEB900233B63202287F83D20D5
:102BB00087F83E303A6C42F020023A6487F83C30A5
:102BC00001201EE03B689C6925EA040C1FFA8CFC7E
:102BD000BCFA8CFC4FEA5C1CE04511D1B6F1FF3F1A
:102BE000DAD1C5F30743012BECD13B685B6925EAD9
:102BF000030C1FFA8CFCBCFA8CFC4FEA5C1CEBE764
:102C00000020BDE8F0812DE9F04105460E4617464B
:102C100098463DE01A6842F400721A602B686FF41F
:102C200080625A6100232B63202285F83D2085F8BD
:102C30003E302A6C42F004022A6485F83C300120C0
:102C400034E0FFF72DFBA0EB0800B84200D8FFB935
:102C500000232B63202285F83D2085F83E302A6C26
:102C600042F020022A6485F83C3001201EE02B68E7
:102C70009C6926EA0404A4B2003C18BF0124A4B154
:102C80002B685A6912F4806FC4D1B7F1FF3FD8D1D5
:102C9000C6F30743012BEAD12B685C6926EA0404DA
:102CA000A4B2003C18BF0124E9E70020BDE8F08190
:102CB00070B504460D46164623685B6913F0800F15
:102CC0001CD12046FFF748FFD0B9B5F1FF3FF3D044
:102CD000FFF7E6FA801BA84201D8002DECD10023B3
:102CE0002363202284F83D2084F83E30226C42F099
:102CF0002002226484F83C30012000E0002070BDF6
:102D00000120FCE72DE9F04385B004460D469146CD
:102D10001F46DDF830800D9E0368196841F480710C
:102D200019600096434600224FF00111FFF72DFF76
:102D300060B9236805F0FE051D6133464246264909
:102D40002046FFF760FF68B1012008E023681B6898
:102D500013F4807F02D04FF400732364032005B086
:102D6000BDE8F0830023039323685A6903929B69AB
:102D70000393039B324641462046FFF799FF30B943
:102D8000012F0FD123685FFA89F61E61E7E7236CF4
:102D9000042B01D00120E2E72268136843F400739A
:102DA0001360F7E723684FEA19221A613246414659
:102DB0002046FFF77DFF20B923685FFA89F61E6180
:102DC000CDE7236C042B01D00120C8E722681368EB
:102DD00043F400731360F7E7020001002DE9F047A8
:102DE00084B004460D46164699460C9FDDF83480A3
:102DF0000268136843F4806313600368196841F440
:102E000080711960CDF800803B4600224FF001111F
:102E1000FFF7BBFE70B95FFA85FA236805F0FE057F
:102E20001D6143463A4641492046FFF7ECFE68B132
:102E3000012008E023681B6813F4807F02D04FF460
:102E400000732364032004B0BDE8F08700230393DC
:102E500023685A6903929B690393039B4246394650
:102E60002046FFF725FF80B9B9F1010F18D123687B
:102E7000F6B21E61424639462046FFF719FF68B395
:102E8000236C042B24D00120DDE7236C042B01D01C
:102E90000120D8E72268136843F400731360F7E752
:102EA0002368320A1A61424639462046FFF700FF7E
:102EB00018B92368F6B21E61DCE7236C042B01D03D
:102EC0000120C0E72268136843F400731360F7E73A
:102ED0002268136843F400731360D4E72268136810
:102EE00043F480731360CDF800803B4600224FF01E
:102EF00001112046FFF749FE68B922684AF0010334
:102F0000136143463A4609492046FFF77CFE0028F4
:102F100099D0012097E723681B6813F4807F02D0C3
:102F20004FF40073236403208DE700BF020001000B
:102F300070B504460D46164623685B6913F0040F0E
:102F40001CD12046FFF708FED0B9B5F1FF3FF3D002
:102F5000FFF7A6F9801BA84201D8002DECD1002371
:102F60002363202284F83D2084F83E30226C42F016
:102F70002002226484F83C30012000E0002070BD73
:102F80000120FCE770B505460C4616462B685969CA
:102F900011F0400F29D1596911F0100F15D1FFF729
:102FA0007FF9801BA04201D8002CEFD100232B63B6
:102FB000202285F83D2085F83E302A6C42F0200220
:102FC0002A6485F83C30012070BD6FF010025A6110
:102FD00000232B63202285F83D2085F83E302A6CA3
:102FE0002A6485F83C300120EEE70020ECE7000081
:102FF000002800F0CC8070B5044690F83D30002BDE
:1030000077D0242384F83D302268136823F001032D
:1030100013602268136843F4004313602268136846
:1030200023F40043136000F029FE62685A4B9A4271
:1030300064D85A4B98428CBF00230123002B40F0E8
:10304000A8805749A1FB00318B0C25686A6822F0E3
:103050003F0242EA91426A6021680A6A22F03F0216
:1030600066684D4DAE424FD8013313430B62216861
:10307000CA6922F44F4222F0FF026668464B9E4224
:103080004CD8431E7600B3FBF6F3013340F6FC70D8
:10309000034278D0C3F30B031343CB6121680B6861
:1030A00023F0C003E269206A024313430B602168E6
:1030B0008B6823F4034323F0FF032269E068024393
:1030C00013438B602168CB6823F0FF036269A0691A
:1030D00002431343CB602268136843F0010313607B
:1030E00000202064202384F83D30206384F83E00D3
:1030F00070BD80F83C30FEF799FD82E7294B98427D
:103100008CBF0023012399E74FF4967505FB03F369
:10311000254DA5FB03539B090133A6E7A368BBB963
:10312000451E06EB460CB5FBFCF50135C5F30B055A
:10313000B5FA85F56D0945BBC3B9013806EB460301
:10314000B0FBF3F30133C3F30B0343F40043A3E7F2
:10315000451E06EB860C0CEB8C0CB5FBFCF5013523
:10316000C5F30B05B5FA85F56D09E4E7013806EB03
:10317000860303EB8303B0FBF3F30133C3F30B03C9
:1031800043F4404388E7042386E7012384E70120D2
:1031900070470120ACE700BFA08601007F841E00BD
:1031A00083DE1B43FF083D00D34D62102DE9F04341
:1031B00083B004460F46904699460C9EFFF770F880
:1031C000054694F83D00C0B2202803D0022003B089
:1031D000BDE8F0830095192301224B492046FFF7F3
:1031E000D4FC002840F0898094F83C30012B00F09A
:1031F0008680012384F83C3023681A6812F0010F9E
:1032000003D11A6842F001021A602268136823F49D
:1032100000631360212384F83D30402384F83E305E
:10322000002323640A9B6362BDF82C306385638DA1
:103230002385364BE362019500964B46424639465C
:103240002046FFF75FFD00285BD1238D002B35D092
:103250002A4631462046FFF72BFD20BB626A2368D1
:1032600012781A61626A531C6362218D013989B236
:103270002185638D9BB2013B9BB2638523685869AE
:1032800010F0040FE1D00029DFD052781A61636A90
:1032900001336362238D013B2385638D9BB2013B28
:1032A0009BB26385D1E7236C042B01D001208EE70C
:1032B0002268136843F400731360F7E72A46314627
:1032C0002046FFF735FE50B1236C042B01D00120BE
:1032D0007DE72268136843F400731360F7E7226800
:1032E000136843F400731360202384F83D300023F7
:1032F00084F83E3084F83C3069E7022067E702201A
:1033000065E7012063E700BF020010000000FFFF37
:103310002DE9F04389B004460F4690469946129E27
:1033200000230793FEF7BCFF054694F83D00C0B2AA
:10333000202804D00227384609B0BDE8F083009564
:103340001923012281492046FFF71FFC002840F085
:10335000728194F83C30012B00F06F81012384F8D6
:103360003C3023681A6812F0010F03D11A6842F04A
:1033700001021A602268136823F400631360222399
:1033800084F83D30402384F83E3000232364109BB2
:103390006362BDF844306385638D23856C4BE362C3
:1033A000019500964B46424639462046FFF716FDEA
:1033B0000746002840F04381238D5BB903932368BF
:1033C0005A6903929A690392039A1A6842F4007246
:1033D0001A60EDE0012B0FD0022B21D02268136878
:1033E00043F4806313600023069323685A690692AE
:1033F0009B690693069BDBE02268136823F48063D5
:10340000136072B60023049323685A6904929A6980
:103410000492049A1A6842F400721A6062B6C7E015
:103420002268136843F40063136072B600230593A7
:1034300023685A6905929A690592059A1A6822F4D6
:1034400080621A6062B6B3E02A4631462046FFF732
:1034500099FD002840F0F58023681A69636A1A70A4
:10346000636A01336362238D013B2385638D9BB2C5
:10347000013B9BB263859BE00095334600223549B2
:103480002046FFF782FB002840F0DF8022681368A7
:1034900023F48063136072B623681A69636A1A7032
:1034A000636A01336362238D013B2385638D9BB285
:1034B000013B9BB26385284B1B68DB08274AA2FBB4
:1034C00003231B0A03EB8303C3EBC3030793079B8D
:1034D000013B0793079B002B28D023685A6912F001
:1034E000040FF4D01A6842F400721A6023681A6953
:1034F000636A1A70636A01336362238D013B23851B
:10350000638D9BB2013B9BB2638562B623681A69E7
:10351000636A1A70636A01336362238D013B2385FA
:10352000638D9BB2013B9BB2638541E02363202204
:1035300084F83D2084F83E30226C42F02002226460
:1035400062B684F83C300127F5E600BF02001000A7
:103550000000FFFF040001000000002089B5F814FE
:103560002A4631462046FFF70DFD00286FD123681B
:103570001A69636A1A70626A531C6362238D013B85
:103580002385638D9BB2013B9BB263852368596998
:1035900011F0040F0CD01B695370636A013363622E
:1035A000238D013B2385638D9BB2013B9BB26385D9
:1035B000238D002B36D0032BD2D8012B3FF444AF00
:1035C000022B7FF459AF0095334600222149204653
:1035D000FFF7DBFA002836D172B62268136843F48D
:1035E0000073136023681A69636A1A70636A01338F
:1035F0006362238D013B2385638D9BB2013B9BB2AC
:10360000638562B623681A69636A1A70636A013354
:103610006362238D013B2385638D9BB2013B9BB28B
:103620006385C5E7202384F83D30002384F83E30CD
:1036300084F83C307FE602277DE602277BE60127FF
:1036400079E6012777E6012775E6012773E601276A
:1036500071E600BF0400010082B0084B1B68084AF5
:10366000A2FB03235B0A00FB03F3019300BF019B52
:103670005A1E0192002BF9D102B0704700000020C1
:10368000D34D6210002800F0F18170B582B004467D
:10369000036813F0010F2CD0994B5B6803F00C0307
:1036A000042B1DD0964B5B6803F00C03082B12D043
:1036B0006368B3F5803F41D0002B55D103F18043BF
:1036C00003F504331A6822F480321A601A6822F46F
:1036D00080221A6037E08A4B5B6813F4803FE7D0A2
:1036E000874B1B6813F4003F03D06368002B00F086
:1036F000BF81236813F0020F75D0814B5B6813F014
:103700000C0F5FD07E4B5B6803F00C03082B54D08A
:103710002369002B00F08A807A4B01221A60FEF7A1
:10372000BFFD0546764B1B6813F0020F75D1FEF7FF
:10373000B7FD401B0228F5D903209EE1704A1368AB
:1037400043F480331360636843B3FEF7A9FD054675
:103750006B4B1B6813F4003FCBD1FEF7A1FD401B60
:103760006428F5D9032088E1B3F5A02F09D0644B74
:103770001A6822F480321A601A6822F480221A60D1
:10378000E1E703F18043A3F53C331A6842F4802259
:103790001A601A6842F480321A60D4E7FEF780FD9E
:1037A0000546574B1B6813F4003FA2D0FEF778FD87
:1037B000401B6428F5D903205FE1514B5B6813F48B
:1037C000803FA5D14E4B1B6813F0020F03D0236935
:1037D000012B40F04F814A4A136823F0F8036169D6
:1037E00043EAC1031360236813F0080F33D0A369C1
:1037F000002B5CD0434B0122C3F88024FEF750FD20
:1038000005463F4B5B6A13F0020F21D1FEF748FDDE
:10381000401B0228F5D903202FE1394A136823F011
:10382000F803616943EAC1031360DCE7354B00220A
:103830001A60FEF735FD0546314B1B6813F0020F89
:10384000D1D0FEF72DFD401B0228F5D9032014E14D
:103850000120FFF701FF236813F0040F00F09680AA
:10386000274BDB6913F0805F34D1254BDA6942F0D6
:103870008052DA61DB6903F080530193019B0125DB
:10388000214B1B6813F4807F26D0E368012B3DD0C9
:10389000002B53D103F1804303F504331A6A22F05D
:1038A00001021A621A6A22F004021A6233E0154B0E
:1038B0000022C3F88024FEF7F3FC0546104B5B6A38
:1038C00013F0020FC7D0FEF7EBFC401B0228F5D91E
:1038D0000320D2E00025D3E70B4A136843F480733A
:1038E0001360FEF7DDFC0646074B1B6813F4807F70
:1038F000CBD1FEF7D5FC801B6428F5D90320BCE0B2
:103900000010024000004242007000405F4A136A0B
:1039100043F001031362E36833B3FEF7C1FC0646CC
:103920005A4B1B6A13F0020F2FD1FEF7B9FC801B14
:1039300041F288339842F3D903209EE0052B09D049
:10394000524B1A6A22F001021A621A6A22F0040229
:103950001A62E0E74D4B1A6A42F004021A621A6AD0
:1039600042F001021A62D6E7FEF79AFC0646474B80
:103970001B6A13F0020F08D0FEF792FC801B41F285
:1039800088339842F3D9032077E0E5B9E369002B47
:1039900072D03E4A526802F00C02082A56D0022B1E
:1039A00017D03B4B00221A66FEF77AFC0446374BD1
:1039B0001B6813F0007F47D0FEF772FC001B022843
:1039C000F5D9032059E0314AD36923F08053D361FC
:1039D000DCE72F4B00221A66FEF762FC05462B4BF4
:1039E0001B6813F0007F06D0FEF75AFC401B02282C
:1039F000F5D9032041E0236AB3F5803F1AD023496B
:103A00004B6823F47413226A606A024313434B60C9
:103A10001F4B01221A66FEF743FC04461B4B1B6832
:103A200013F0007F0ED1FEF73BFC001B0228F5D9F6
:103A3000032022E0154A536823F40033A1680B43A6
:103A40005360DCE7002018E0002016E0012B16D0C0
:103A50000E4B5B6803F48031226A914211D103F46A
:103A60007013626A93420ED1002006E00120704775
:103A7000012002E0012000E0002002B070BD012022
:103A8000FBE70120F9E70120F7E700BF0010024043
:103A90000000424286B0174B0FCB0DF1180C0CE919
:103AA0000F0040F20123ADF80430134B5B6803F0C4
:103AB0000C02082A02D0114806B07047C3F38342B3
:103AC00018326A4412F8100C13F4803F0DD00A4BE0
:103AD0005B68C3F3404318336B4413F8143C074A44
:103AE00002FB00F0B0FBF3F0E6E7054B03FB00F050
:103AF000E2E700BF2C8800080010024000127A00A4
:103B000000093D00002800F0A08070B50D46044675
:103B1000524B1B6803F007038B420BD24F4A1368CA
:103B200023F007030B431360136803F007038B4272
:103B300040F08D80236813F0020F17D013F0040FAC
:103B400004D0474A536843F4E0635360236813F09A
:103B5000080F04D0424A536843F460535360404A0C
:103B6000536823F0F003A1680B435360236813F0FC
:103B7000010F31D06368012B20D0022B25D0384AA9
:103B8000126812F0020F64D035494A6822F003022D
:103B900013434B60FEF784FB0646314B5B6803F032
:103BA0000C036268B3EB820F16D0FEF779FB801B23
:103BB00041F288339842F0D9032045E0284A126840
:103BC00012F4003FE0D101203EE0254A126812F0D5
:103BD000007FD9D1012037E0204B1B6803F0070399
:103BE000AB420AD91D4A136823F007032B43136025
:103BF000136803F00703AB422DD1236813F0040FC1
:103C000006D0174A536823F4E063E1680B4353601E
:103C1000236813F0080F07D0114A536823F4605348
:103C2000216943EAC1035360FFF734FF0C4B5B6823
:103C3000C3F303130B4AD35CD8400B4B18600B4BF8
:103C40001868FEF731F9002070BD0120704701208F
:103C5000FAE70120F8E70120F6E700BF0020024064
:103C60000010024014880008000000200800002016
:103C7000014B1868704700BF0000002008B5FFF72F
:103C8000F7FF044B5B68C3F30223034AD35CD840BD
:103C900008BD00BF001002402488000808B5FFF7E7
:103CA000E7FF044B5B68C3F3C223034AD35CD840ED
:103CB00008BD00BF00100240248800080F230360E5
:103CC0000B4B5A6802F0030242605A6802F0F0029D
:103CD00082605A6802F4E062C2605B68DB0803F449
:103CE000E0630361034B1B6803F007030B6070473D
:103CF000001002400020024070B582B00446036804
:103D000013F0010F36D03F4BDB6913F0805F49D1D0
:103D10003C4BDA6942F08052DA61DB6903F0805390
:103D20000193019B0125384B1B6813F4807F3BD026
:103D3000344B1B6A13F4407313D0626802F4407270
:103D40009A420ED02F4A136A23F440702F4901265D
:103D5000C1F840640026C1F84064106213F0010FFE
:103D600036D1284A136A23F4407361680B43136207
:103D7000002D3ED1236813F0020F06D0214A53686C
:103D800023F44043A1680B435360236813F0100FE2
:103D900034D01C4A536823F48003E1680B4353601A
:103DA00000202CE00025BEE7174A136843F4807317
:103DB0001360FEF775FA0646134B1B6813F4807FF9
:103DC000B6D1FEF76DFA801B6428F5D9032016E002
:103DD000FEF766FA06460B4B1B6A13F0020FC0D1C2
:103DE000FEF75EFA801B41F288339842F3D9032034
:103DF00005E0D36923F08053D361BBE7002002B014
:103E000070BD00BF00100240007000400000424240
:103E100000B587B08446394B0FCB0DF1180E0EE973
:103E20000F0040F20123ADF80430BCF1020F56D070
:103E3000BCF1100F06D0BCF1010F2ED0002007B04E
:103E40005DF804FB2E4B5A68186810F08070F6D0AD
:103E5000C2F3834318336B4413F8100C12F4803F01
:103E600017D0274B5B68C3F3404318336B4413F8F8
:103E7000142C244BB3FBF2F303FB00F0204B5B68E4
:103E800013F4800FDBD140001F4BA3FB0030400830
:103E9000D5E71E4B03FB00F0F0E7194B1B6A40F21D
:103EA00002321A40B2F5817F24D003F44073B3F597
:103EB000007F04D0B3F5407F09D00020BFE7104A4F
:103EC000526A12F0020FF5D049F64040B7E70C4BAA
:103ED000186810F40030B2D04FF22440AFE7FFF77B
:103EE000DDFE074B5B68C3F3813301335B00B0FB3E
:103EF000F3F0A4E74FF40040A1E700BF2C880008CE
:103F00000010024000127A00ABAAAAAA00093D00E4
:103F10002DE9F04782B00546884617461E46FEF753
:103F2000BFF90A9B1B1A03EB0609FEF7B9F9824693
:103F30002B4B1B68C3F3CB3309FB03F301932B68B3
:103F40009C6838EA04030CBF4FF0010C4FF0000CE2
:103F5000BC4540D0B6F1FF3FF1D0FEF7A1F9A0EB90
:103F60000A0048450AD2B9F1000F07D0019A02B100
:103F70004A46019B013B01939146E0E72A6853685A
:103F800023F0E00353606B68B3F5827F0BD0AB6A1C
:103F9000B3F5005F14D0012385F85130002385F874
:103FA0005030032018E0AB68B3F5004F02D0B3F5F2
:103FB000806FECD12A68136823F040031360E6E7B2
:103FC0002A68136823F4005313602A68136843F4C3
:103FD00000531360DFE7002002B0BDE8F08700BFA8
:103FE0000000002010B582B004460B46009200226B
:103FF0008021FFF78DFF08B902B010BD636D43F05B
:10400000200363650320F7E7002856D010B5044667
:10401000436A33B94368B3F5827F05D00023C36197
:1040200002E00023036143610023A36294F851304E
:10403000002B3CD0022384F851302268136823F00F
:1040400040031360636803F48273A26802F40442BD
:104050001343E26802F400621343226902F0020291
:104060001343626902F001021343A26902F4007271
:104070001343E26902F038021343226A02F080021D
:104080001343A26A02F40052216813430B60638B4E
:10409000226803F0040353602268D36923F40063A9
:1040A000D36100206065012384F8513010BD84F88D
:1040B00050302046FDF79CFEBCE7012070472DE9FB
:1040C000F04383B01D4690F85030012B00F0D180B2
:1040D000044688469146012380F85030FEF7E0F808
:1040E000074694F85160F6B2012E40F0AF80B8F167
:1040F000000F00F0AC80B9F1000F00F0A88003239E
:1041000084F8513000236365C4F83080A4F83490FB
:10411000A4F83690A363A387E38763642364A3684A
:10412000B3F5004F1ED023681A6812F0400F03D178
:104130001A6842F040021A60E368B3F5006F1CD0C1
:10414000636813B1B9F1010F52D1226B2368127861
:104150001A73236B01332363E38E9BB2013B9BB243
:10416000E38645E02268136823F040031360226869
:10417000136843F480431360D5E7636813B1B9F162
:10418000010F16D1226B23681288DA60236B023389
:104190002363E38E9BB2013B9BB2E38609E0FEF70B
:1041A0007FF8C01BA84202D3B5F1FF3F59D1002DC3
:1041B00059D0E38E9BB2002B33D023689A6812F05B
:1041C000020FECD0226B1288DA60236B0233236378
:1041D000E38E9BB2013B9BB2E386EAE7FEF760F811
:1041E000C01BA84202D3B5F1FF3F3ED1002D3ED007
:1041F000E38E9BB2ABB123689A6812F0020FEDD048
:10420000226B12781A73236B01332363B4F836C020
:104210001FFA8CFC0CF1FF3C1FFA8CFCA4F836C092
:10422000E6E73A4629462046FFF7DCFE08B12023A0
:104230006365A36833B901932368DA6801929B68C8
:104240000193019B636D13B9002600E00226012350
:1042500084F85130002384F85030304603B0BDE874
:10426000F0830326F3E70326F1E70326EFE70326AF
:10427000EDE70226F1E7000070B4036A23F00103C2
:104280000362036A4668826922F073020C6844EA9A
:10429000020523F002028B6813430D4CA04209D0A3
:1042A0000B4CA0420DD0466085614A6842630362B0
:1042B00070BC704723F00803CA68134323F004035B
:1042C000EEE726F440764A6932438E691643EAE700
:1042D000002C014030B4036A23F480730362036A44
:1042E0004568C26922F073020C68224323F400730C
:1042F0008C6843EA04230F4CA04209D00D4CA04225
:104300000ED04560C2614A68C263036230BC704728
:1043100023F40063CC6843EA042323F48063EDE7CD
:1043200025F440554C6945EA04158C6945EA0415A5
:10433000E7E700BF002C014030B4036A23F4805348
:104340000362036A4468C26922F4E6420D6842EAE5
:10435000052223F400538D6843EA0533074DA84234
:1043600006D04460C2614A680264036230BC704790
:1043700024F480444D6944EA8514F2E7002C01409E
:1043800010B4036A046A24F001040462846924F00E
:10439000F00C4CEA021223F00A030B438261036221
:1043A00010BC704710B4046A24F0100404628469DD
:1043B000036A24F4704C4CEA023223F0A00343EA6F
:1043C00001138261036210BC7047836823F070039D
:1043D0000B4343F0070383607047000090F83D30C3
:1043E000DBB2012B27D1022380F83D300268D3686D
:1043F00043F00103D3600368114A934210D0B3F134
:10440000804F0DD0A2F59432934209D002F580621C
:10441000934205D01A6842F001021A6000207047EA
:104420009A6802F00702062A07D01A6842F00102D1
:104430001A6000207047012070470020704700BFBD
:10444000002C01407047704770477047704710B5A7
:10445000044603681A6912F0020F11D0DA6812F0EC
:10446000020F0DD06FF002021A6101230377036877
:104470009B6913F0030F70D0FFF7E6FF002323774B
:1044800023681A6912F0040F12D0DA6812F0040FD0
:104490000ED06FF004021A610223237723689B6910
:1044A00013F4407F5FD02046FFF7CEFF0023237731
:1044B00023681A6912F0080F12D0DA6812F0080F98
:1044C0000ED06FF008021A61042323772368DB699A
:1044D00013F0030F4ED02046FFF7B6FF00232377DB
:1044E00023681A6912F0100F12D0DA6812F0100F58
:1044F0000ED06FF010021A61082323772368DB695E
:1045000013F4407F3DD02046FFF79EFF0023237722
:1045100023681A6912F0010F03D0DA6812F0010F54
:1045200036D123681A6912F0800F03D0DA6812F0CE
:10453000800F34D123681A6912F0400F03D0DA6873
:1045400012F0400F32D123681A6912F0200F03D005
:10455000DA6812F0200F30D110BDFFF774FF20464B
:10456000FFF773FF8AE72046FFF76DFF2046FFF74E
:104570006CFF9BE72046FFF766FF2046FFF765FFCD
:10458000ACE72046FFF75FFF2046FFF75EFFBDE781
:104590006FF001021A612046FDF784FBC1E76FF05E
:1045A00080021A61204600F091FAC3E76FF04002E2
:1045B0001A612046FFF74AFFC5E76FF020021A6133
:1045C000204600F082FAC7E703681B4A90420AD0EF
:1045D000B0F1804F07D0A2F59432904203D002F59B
:1045E0008062904203D123F070034A681343124A59
:1045F00090420AD0B0F1804F07D0A2F59432904299
:1046000003D002F58062904203D123F44073CA685C
:10461000134323F080034A69134303608B68C3622A
:104620000B688362044B984202D0012343617047B8
:104630000B690363F9E700BF002C014040B310B5DC
:10464000044690F83D30F3B1022384F83D30214612
:1046500051F8040BFFF7B8FF012384F8463084F8C3
:104660003E3084F83F3084F8403084F8413084F89C
:10467000423084F8433084F8443084F8453084F87C
:104680003D30002010BD80F83C30FDF7A3FCDBE797
:104690000120704740B310B5044690F83D30F3B1A7
:1046A000022384F83D30214651F8040BFFF78CFFBC
:1046B000012384F8463084F83E3084F83F3084F893
:1046C000403084F8413084F8423084F8433084F834
:1046D000443084F8453084F83D30002010BD80F827
:1046E0003C30FFF7AFFEDBE70120704730B4036AD0
:1046F00023F010030362036A4468826922F4E642ED
:104700000D6842EA052223F020038D6843EA051371
:104710000E4DA84209D00D4DA8420ED044608261D2
:104720004A688263036230BC704723F08003CD681F
:1047300043EA051323F04003EDE724F440644D6998
:1047400044EA85048D6944EA8504E7E7002C0140CA
:1047500038B590F83C30012B60D004460D4601235B
:1047600080F83C300C2A1AD8DFE802F00719191932
:104770001D1919193119191944000068FFF77CFD3A
:104780002268936943F0080393612268936923F0D8
:10479000040393612268936929690B4393610020A4
:1047A00084F83C0038BD0068FFF7A0FF22689369D9
:1047B00043F4006393612268936923F480639361F7
:1047C00022689369296943EA01239361E7E7006856
:1047D000FFF780FD2268D36943F00803D3612268A4
:1047E000D36923F00403D3612268D36929690B4399
:1047F000D361D4E70068FFF79FFD2268D36943F4D3
:104800000063D3612268D36923F48063D361226893
:10481000D369296943EA0123D361C0E70220C1E7D4
:1048200010B4846824F47F4C42EA03220A4342EA2B
:104830000C02826010BC704790F83C30012B66D0AF
:1048400010B50446012380F83C30022380F83D3047
:104850000268936823F47F4323F0770393600B6827
:10486000602B40D022D8402B47D00BD9502B0ED1F3
:10487000CA6849680068FFF783FD50212068FFF788
:10488000A4FD04E0202B0CD008D9302B09D0012343
:1048900084F83D30002084F83C0010BD0BB1102B93
:1048A000F5D119462068FFF790FDF0E7702B0ED088
:1048B000B3F5005FEBD1CB684A6889680068FFF701
:1048C000AFFF2268936843F480439360DFE7CB68CF
:1048D0004A6889680068FFF7A3FF2268936843F07D
:1048E00077039360D3E7CA6849680068FFF75AFD09
:1048F00060212068FFF769FDC9E7CA684968006858
:10490000FFF73EFD40212068FFF75FFDBFE7022073
:10491000704701F01F01012303FA01FC036A23EA37
:104920000C030362036A02FA01F10B43036270474E
:1049300010B50446084651BB94F83E30DBB2013B4B
:1049400018BF0123002B5BD1002839D1022384F842
:104950003E30012201462068FFF7DBFF23682A4A28
:1049600093423DD02368284A93423ED0B3F1804F12
:104970003BD0A2F59432934237D002F58062934245
:1049800033D01A6842F001021A60002039E004298D
:1049900008D008290DD094F84130DBB2013B18BF94
:1049A0000123CFE794F83F30DBB2013B18BF01236E
:1049B000C8E794F84030DBB2013B18BF0123C1E7E0
:1049C000042805D0082807D0022384F84130C0E726
:1049D000022384F83F30BCE7022384F84030B8E774
:1049E0005A6C42F400425A64BCE79A6802F007022B
:1049F000062A07D01A6842F001021A60002000E07F
:104A0000012010BD0020FCE7002C014090F83C3054
:104A1000012B2CD010B4012380F83C30022380F805
:104A20003D3003685A689C6822F0700C0A6842EABC
:104A30000C025A6003680F4A93420AD0B3F1804FC8
:104A400007D0A2F59432934203D002F580629342DC
:104A500004D124F080044A6814439C60012380F848
:104A60003D30002380F83C30184610BC70470220CF
:104A7000704700BF002C014090F83C30012B22D041
:104A8000012380F83C30CB6823F440738A681343D9
:104A900023F480634A68134323F400630A681343D2
:104AA00023F480530A69134323F400534A691343E0
:104AB00023F48043CA69134302685364002380F8D7
:104AC0003C3018467047022070477047704700001E
:104AD00010B504460268136923F44053C1680B43C0
:104AE000136183680269134342691A430168CB6802
:104AF00023F4B05323F00C031343CB6002685369D3
:104B000023F4407381690B4353610268134B9A424B
:104B100020D0FFF7B3F8024602EB820202EB8202DA
:104B200063689B00B2FBF3F20D48A0FB0231490918
:104B3000642303FB11231B013233A0FB03235B0916
:104B400003F0F00202EB011203F00F03216813449B
:104B50008B6010BDFFF7A2F80246DDE70038014088
:104B60001F85EB512DE9F84305460F461646994639
:104B7000DDF820802C68246837EA04030CBF4FF06E
:104B8000010C4FF0000CB4451FD1B8F1FF3FF1D03C
:104B9000B8F1000F05D0FDF783FBA0EB09004045FD
:104BA000E8D92A68D36823F4D073D3602A6853699C
:104BB00023F001035361202385F83D3085F83E3012
:104BC000002385F83C30032000E00020BDE8F88396
:104BD00058B310B5044690F83D300BB3242384F845
:104BE0003D302268D36823F40053D3602046FFF79A
:104BF0006FFF2268136923F490431361226853699D
:104C000023F02A0353612268D36843F40053D3602E
:104C100000202064202384F83D3084F83E3010BD0D
:104C200080F83C30FDF7B4FAD8E7012070472DE951
:104C3000F04182B01E4690F83D30DBB2202B54D1BB
:104C400004460D469046002953D0002A53D090F8D0
:104C50003C30012B51D0012380F83C300023036409
:104C6000212380F83D30FDF71BFB0746A4F8248084
:104C7000A4F82680A368B3F5805F05D04FF0000844
:104C8000002384F83C3012E0236913B14FF0000890
:104C9000F6E7A8460025F3E738F8023B2268C3F39D
:104CA00008035360E28C92B2013A92B2E284E38C40
:104CB0009BB273B100963B46002280212046FFF74D
:104CC00051FFE0B9002DE7D015F8012B23685A6099
:104CD000E8E700963B46002240212046FFF742FFCE
:104CE00078B9202384F83D3000E0022002B0BDE80E
:104CF000F0810120FAE70120F8E70220F6E703201F
:104D0000F4E70320F2E7000008B500F017FD00F01B
:104D1000CBFC00F0EDFA00F0C3FAFDF7C1FA014B4D
:104D2000186008BD301000202DE9F843044688467D
:104D300016460846FBF7F6FD054621462046FBF7DA
:104D4000F1FD01462846FBF7E5FC00F0A3FC4FF01F
:104D50007851FBF7E7FD07464046FBF75DFB8046D1
:104D600089462046FBF758FB42464B4603F028F99C
:104D700004460D463046FBF74FFB22462B46FBF719
:104D8000EDF9FBF771FC00F067FC80466449FBF726
:104D90007DFEFBF741FB03F097F80022614BFBF728
:104DA000DDF9FBF719FC0546FBF768FD04465C4995
:104DB000FBF7B8FD4146FBF7ABFC00F09BFB5A4903
:104DC000FBF7B0FD3946FBF7ADFD06464FF07E51CF
:104DD0002046FBF79DFC5249FBF7A4FD01464046E7
:104DE000FBF796FC00F086FB4F49FBF79BFD39462D
:104DF000FBF798FD044631464FF07E50FBF788FCE8
:104E00002146FBF785FC07466B1E052B00F28380CD
:104E1000DFE803F0031F3245586B21463046FBF7AD
:104E200079FC05464FF07C513846FBF77BFD074681
:104E300001462846FBF76EFC054621463846FBF73F
:104E400069FC80463A464146284600F049FCBDE8E8
:104E5000F8834FF07C51FBF765FD07463146FBF7C1
:104E600059FC054621463046FBF754FC01463846BE
:104E7000FBF750FC8046E5E74FF07C51FBF752FD15
:104E8000054621463046FBF745FC2946FBF742FC28
:104E9000804629462046FBF73DFC0746D2E74FF007
:104EA0007C51FBF73FFD054601463046FBF732FCDF
:104EB000804621463046FBF72DFC2946FBF72AFCAD
:104EC0000746BFE74FF07C51FBF72CFD804621469B
:104ED000FBF720FC054621463046FBF71BFC01464C
:104EE0004046FBF717FC0746ACE721463046FBF788
:104EF00011FC04464FF07C513846FBF713FD804609
:104F000001462046FBF706FC054631464046FBF7C6
:104F100001FC074696E70027B8463D4692E700BFEA
:104F2000920A863F0000F03FD7B3DD3F08B500F09E
:104F30003BFC0349FBF7AAFD0249FBF7F3FC08BD64
:104F400000F07F45DB0FC94008B5FFF7EFFF0549CB
:104F5000FBF7E8FC044B1968FBF7DAFB00F07CFB7D
:104F600008BD00BF0000E0400C00002010B5002488
:104F700022464FF082412046FFF7D6FE4FF4C8701C
:104F8000FDF794F9FFF7E0FF054B18606420FDF78B
:104F90008DF9224621462046FFF7C6FE10BD00BF10
:104FA0000C00002000000000F8B5FDF779F9224B55
:104FB0001B68C01AFBF75EFCFBF72EFA1CA3D3E9B3
:104FC0000023FBF79BFEFBF74FFB0546FBF724FA9C
:104FD00017A3D3E90023FBF7D7FA00B1174DFDF76C
:104FE0005FF9154B1860FFF7A1FF0646144F3968AB
:104FF000FBF78EFB04463E6020F000401149FBF7B2
:105000004DFE48B100212046FBF748FE48B10E494D
:105010002046FBF77DFB044629462046FBF736FD7C
:10502000F8BD09492046FBF775FB0446F4E700BFCD
:10503000FCA9F1D24D62503F301000206F12833A2C
:1050400028100020DB0F4940DB0FC94010B5044693
:10505000FFF77AFF024600212046FFF765FE10BDEC
:1050600010B50446FFF7A0FF0146094800F02AF9F1
:105070000246084B18602146074800F0D1F9044663
:10508000FFF762FF024600212046FFF74DFE10BDEC
:105090003C1000202C1000200C11002070B500F0F6
:1050A000DBFA0446FFF742FF1D4B1968FBF730FBA4
:1050B00000F0D2FA054601462046FBF729FB0646DA
:1050C0001849FBF7CDFDF0B117492046FBF722FB4D
:1050D00004462A462146154800F0A2F90446FFF787
:1050E00063FF0146124800F0EDF8024621461148E0
:1050F00000F096F90446FFF727FF024600212046FC
:10510000FFF712FE70BD0C493046FBF7C7FD0028C3
:10511000DFD005492046FBF7FBFA0446D9E700BF7C
:1051200010000020DB0F49C0DB0FC94094100020A5
:105130003C1000200C110020DB0F4940F8B50F4651
:1051400000F08AFA0446FFF7F1FE194B1968FBF7E5
:10515000DFFA00F081FA054601462046FBF7D8FA4F
:1051600006461449FBF77CFDB0B113492046FBF716
:10517000D1FA04462A462146384600F051F9014644
:105180000E4800F09FF80446FFF7DEFE02460021BD
:105190002046FFF7C9FDF8BD09493046FBF77EFD03
:1051A0000028E7D004492046FBF7B2FA0446E1E7BD
:1051B00010000020DB0F49C0DB0FC9403410002075
:1051C000DB0F4940F0B583B00446FFF7AFFE2E4B2E
:1051D0001968FBF79DFA00F03FFA06462046FBF7F8
:1051E0004DFB05463146FBF79DFB2849FBF74EFC7E
:1051F000FBF712F902F068FEFBF716FAC4B220467C
:10520000FBF73CFB2149FBF78DFB2946FBF73EFCF6
:10521000074629461E48FBF739FC01463846FBF78E
:1052200079FA05463146FBF773FA07461949FBF749
:1052300017FDE8B115492846FBF76CFA05463246DA
:105240002946154800F0ECF80546FFF77DFE0246BA
:1052500000212846FFF768FD30348DF80740FF2312
:1052600001220DF107010D48FFF7E1FC03B0F0BD8D
:1052700007493846FBF712FD0028E0D003492846CD
:10528000FBF746FA0546DAE710000020DB0FC940BD
:10529000DB0F4940DB0F49C06C100020E00F0020FD
:1052A000054B00225A604FF07C511960034B5A6045
:1052B000034A1A60704700BF3C10002034100020E1
:1052C000CDCC4C3E70B5044606683046FBF72AFB51
:1052D000054631464FF07E50FBF71AFA6168FBF73E
:1052E00021FB01462846FBF715FA606070BD0000FF
:1052F00030B5374A374B1360374B53600023936008
:10530000D360136135495161354991614FF0824451
:10531000D4614FF0414EC2F820E05362314A324925
:10532000116053609360D360136153614FF000418B
:1053300091612E48D0612E48106253622D4A2E4D45
:10534000156053604FF042409060D3601361536129
:1053500091614FF0804CC2F81CC04FF04040106289
:105360005362264A15605360254D9560D3601361E2
:1053700053619161C2F81CC010625362214A1360EC
:105380005360214D9560D360136153619161D46185
:10539000C2F820E053621D4A136053601C4C9460B5
:1053A000D360136153619161C2F81CC010625362F3
:1053B000184A1948106053609360D36013615361B9
:1053C00091614FF08141D16114491162536230BD46
:1053D0000C1100200AD7A33D8FC2F53C0000FA4310
:1053E0000000FAC394100020000020410000A041FA
:1053F0000000A0C1BC10002000002040E4100020EC
:1054000000001643441000200000484334110020DF
:105410000000F4C16C1000200000A040000080C01B
:105420002DE9F843044608461146FBF771F9054695
:1054300020F00040616AFBF713FC00B10025E16831
:105440002846FBF767F90646E06067693946FBF7CF
:1054500025FC002845D0E76021692846FBF758F96C
:10546000FAF7DAFF8046894629462068FBF75AFAA0
:105470000646E1686068FBF755FA01463046FBF7DF
:1054800049F9FAF7C9FF06460F46A068FAF7C4FFC4
:1054900042464B46FBF732FC02460B463046394645
:1054A000FAF75CFE80468946E069FAF7B5FF0646E2
:1054B0000F4642464B46FBF767F858B9206AFAF7A1
:1054C000ABFF06460F4642464B46FBF77BF808B952
:1054D00046464F46256130463946FBF7C5F8BDE8DC
:1054E000F883A76939463046FBF7BAFB0028B3D0EA
:1054F000E760B1E710B504465049FBF7B1FB38BB94
:105500004F492046FBF7ACFB002842D14D492046CD
:10551000FBF7A6FB00286BD04B492046FBF702FAAD
:1055200004460021FBF7B0FB002857D04FF07C5118
:105530002046FBF7EFF8FBF7BBFBA0F5C770434B2A
:1055400053F82000FBF79AF94149FBF7EBF917E014
:105550003D492046FBF7E6F904460021FBF794FBA2
:1055600078B14FF07C512046FBF7D4F8FBF7A0FB55
:10557000364B53F82000FBF781F93649FBF7D2F997
:1055800010BD4FF07C512046FBF7C2F8FBF790FBB3
:10559000EEE72D492046FBF7C5F904460021FBF74D
:1055A00073FB88B14FF07C512046FBF7B3F8FBF753
:1055B0007FFBC0F5C770254B53F82000FBF75EF961
:1055C0002449FBF7AFF9DBE74FF07C512046FBF7AE
:1055D0009FF8FBF76DFBC0F5C770ECE74FF07C510F
:1055E0002046FBF795F8FBF763FBA0F5C770A6E72D
:1055F00015492046FBF796F904460021FBF744FBCA
:1056000088B14FF07C512046FBF784F8FBF750FB44
:10561000C0F547700D4B53F82000FBF72FF90C49EC
:10562000FBF780F9ACE74FF07C512046FBF770F8B0
:10563000FBF73EFBC0F54770ECE700BFDB0FC93F4F
:10564000DB0F4940E4CB9640E65FFD42408800080E
:1056500017B7D1B817B7D13810B5FAF7DDFE0AA3DE
:10566000D3E9002302F0AEFCFAF7FEFF0446002166
:10567000FBF70AFB08B1204610BD05492046FBF7A1
:1056800049F80446F7E700BF00000060FB2119401D
:10569000DB0FC94008B501460248A0EB6100FBF7EB
:1056A00041F908BD865A375F10B501224FF4004119
:1056B0000948FDF73CFA094C2046FEF78FFE002111
:1056C0002046FFF735F904212046FFF731F908217C
:1056D0002046FFF72DF910BD000C0140980F002067
:1056E00070B50E461546FAF797FE11A3D3E90023CD
:1056F000FBF704FB104B1C68FAF796FF606330461B
:10570000FAF78AFE0AA3D3E90023FBF7F7FAFAF7C0
:105710008BFFA0632846FAF77FFE05A3D3E9002399
:10572000FBF7ECFAFAF780FFE06370BDAFF300809F
:105730000000000000FEAF40980F002000B587B0C9
:1057400003238DF81730FF230293012301930DF1FA
:105750001702009207226C210248FDF727FD07B0CF
:105760005DF804FBA00E002000B587B000238DF883
:105770001730FF230293012301930DF117020092CA
:105780000B226C210748FDF7C3FD9DF8173013F07D
:10579000200F02D001238DF817309DF8170007B0B5
:1057A0005DF804FBA00E002010B584B0FFF7DCFF0D
:1057B00018B90D4B186804B010BDFF2302930223E3
:1057C00001930A4C009401230C226C210848FDF738
:1057D0009FFD23781B0203F4706360781843FBF786
:1057E0004DF8014B1860E4E75C11002060110020C7
:1057F000A00E002008B50248FCF702FF08BD00BF5C
:105800009C0800202DE9F84306460D469846BDF851
:10581000209090420BD01746904206D9D3B25FFA3F
:1058200088F28846074615461E46F4B221E09942A2
:1058300002D9DBB288461D46EDB205E04A46304645
:1058400000F082FB0135EDB2A9B24145F6D913E073
:10585000A8EB0501A31B03FB01F1BB1B91FBF3F1BB
:10586000C9B2EBB219444A46C9B200F06DFB01342B
:10587000E4B2A0B2B842EBD9BDE8F883F0B585B088
:10588000044600293FD0002000F044FC294B00933F
:1058900050231A460021084600F054FC264D0026ED
:1058A00002964FF6E07701976B6800932B68234AC6
:1058B0001421502000F064FB029601976B6800935E
:1058C0002B681F4A2621502000F05AFB4FF6FF7527
:1058D00000951223962219465020FFF793FF00955A
:1058E0004423962219465020FFF78CFF154B029651
:1058F00001955A6800921B6822463821502000F01A
:105900003FFB05B0F0BD002500950A235022382149
:10591000104600F06BFB0B4B02954FF6FF720192A5
:105920005A6800921B6822463821502000F028FB5C
:10593000E7E700BFB0B4000814000020608B000847
:10594000648B0008240000202DE9F04184B0054656
:105950000E461C46BDF82C80024497B2CDF800805C
:105960000B463A46FFF74EFF3444A4B2CDF8008010
:1059700023463A4631463846FFF744FFCDF80080CB
:1059800023462A4621463846FFF73CFFCDF80080E3
:1059900033462A4621462846FFF734FF094B711C3F
:1059A000681CBDF830200292CDF804805A6800923D
:1059B0001B680A9A89B280B200F0E2FA04B0BDE82E
:1059C000F08100BF2400002070B584B0054600209F
:1059D00000F0ACFB4FF6FF7600963E23B42219464A
:1059E0000020FFF70FFF00961423B4221946002071
:1059F000FFF708FF002402940196224B00930C232A
:105A0000172241210A20FFF79FFF029401961E4BA7
:105A100000930C23172241213220FFF795FF0294B7
:105A200001961A4B00930C23172241218220FFF785
:105A30008BFF174B029401965A6800921B68154A17
:105A40002146204600F09CFA05EB8501124B02949A
:105A50004FF6E07201925A6800921B680F4A02EBFF
:105A600081021E21204600F08BFA6A1C4FF4784315
:105A70000093032312013921204600F0B7FA04B045
:105A800070BD00BF6C8B0008708B0008748B000821
:105A900014000020788B00081C000020B48B000844
:105AA0002DE9F0438DB005460E461F469DF85090F7
:105AB0009DF8548007AC1146204601F06BFF20464C
:105AC00001F0C6FF1F4B1B8823520A2204A9384647
:105AD00001F090FB04A9204601F03CFFB8F1000F53
